:100000000C9469000C9491000C9491000C94910054
:100010000C9491000C9491000C9491000C9491001C
:100020000C9491000C9491000C9491000C9491000C
:100030000C9491000C9491000C9491000C949100FC
:100040000C942C050C9491000C949C050C94760552
:100050000C9491000C9491000C9491000C949100DC
:100060000C9491000C9491006364696E6F707375C9
:1000700078585B00000000002300260029000000E3
:100080000000240027002A000000000025002800AE
:100090002B00040404040404040402020202020209
:1000A000030303030303010204081020408001023C
:1000B00004081020010204081020000000080002BB
:1000C0000100000304070000000000000000CE054E
:1000D000480A11241FBECFEFD8E0DEBFCDBF24E019
:1000E000A0E2B3E001C01D92A531B207E1F713E031
:1000F000A0E0B1E0EAE3F3E202C005900D92A03285
:10010000B107D9F710E0C8E6D0E004C02197FE019E
:100110000E944E0AC736D107C9F70E9495060C9473
:1001200090110C940000833081F028F4813099F014
:100130008230A9F008958730A9F08830C9F0843062
:10014000B1F4809180008F7D03C0809180008F7713
:1001500080938000089584B58F7784BD089584B519
:100160008F7DFBCF8091B0008F778093B000089592
:100170008091B0008F7DF9CF1F93CF93DF93282F0D
:1001800030E0F901E654FF4F8491F901EA55FF4F41
:10019000D491F901EE56FF4FC491CC23A9F0162F4C
:1001A00081110E949300EC2FF0E0EE0FFF1FE85743
:1001B000FF4FA591B4918FB7F894EC91111108C03D
:1001C000D095DE23DC938FBFDF91CF911F910895EF
:1001D000DE2BF8CFCF93DF93C9E0D4E060E08881D5
:1001E0000E94BC0060E08981DF91CF910C94BC003B
:1001F000CF93DF9390E0FC01EA55FF4F24918E5698
:100200009F4FFC0184918823C9F090E0880F991FCB
:10021000FC01E258FF4FA591B491FC01E857FF4F54
:10022000C591D49161110DC09FB7F8948C91209520
:1002300082238C938881282328839FBFDF91CF91CD
:100240000895623051F49FB7F8943C91822F8095C5
:1002500083238C93E8812E2BEFCF8FB7F894EC910A
:100260002E2B2C938FBFEACF3FB7F89480914E038B
:1002700090914F03A0915003B091510326B5A89BD4
:1002800005C02F3F19F00196A11DB11D3FBFBA2F28
:10029000A92F982F8827BC01CD01620F711D811DE8
:1002A000911D42E0660F771F881F991F4A95D1F76D
:1002B00008958F929F92AF92BF92CF92DF92EF926A
:1002C000FF924B015C010E9434016B017C010E9492
:1002D00034016C197D098E099F09683E73408105C0
:1002E0009105A8F321E0821A9108A108B10888EECF
:1002F000C80E83E0D81EE11CF11C81149104A104F6
:10030000B10429F7FF90EF90DF90CF90BF90AF90AE
:100310009F908F900895AF92BF92CF92DF92EF920D
:10032000FF920F931F93CF93DF936C017B018B019F
:10033000040F151FEB015E01AE18BF08C017D107EF
:1003400059F06991D601ED91FC910190F081E02D79
:10035000C6010995892B79F7C501DF91CF911F91CE
:100360000F91FF90EF90DF90CF90BF90AF900895E6
:10037000FC01538D448D252F30E0842F90E0821BAB
:10038000930B541710F0CF96089501970895FC0130
:10039000918D828D981761F0A28DAE0FBF2FB11D88
:1003A0005D968C91928D9F5F9F73928F90E00895E0
:1003B0008FEF9FEF0895FC01918D828D981731F09A
:1003C000828DE80FF11D858D90E008958FEF9FEFEE
:1003D0000895FC01918D228D892F90E0805C9F4FC4
:1003E000821B91098F739927089582E593E00E94FB
:1003F000E90121E0892B09F420E0822F089580E0B3
:1004000090E0892B29F00E94F50181110C940000E5
:10041000089582E593E00E94E901892BD1F382E5FA
:1004200093E00C94C701FC01A48DA80FB92FB11D56
:10043000A35ABF4F2C91848D90E001968F7399271A
:10044000848FA689B7892C93A089B1898C918370F8
:1004500080648C93938D848D981306C00288F389F1
:10046000E02D80818F7D80830895EF92FF920F931E
:100470001F93CF93DF93EC0181E0888F9B8D8C8D50
:1004800098131AC0E889F989808185FF15C09FB744
:10049000F894EE89FF896083E889F9898081837007
:1004A000806480839FBF81E090E0DF91CF911F91B6
:1004B0000F91FF90EF900895F62E0B8D10E00F5FD7
:1004C0001F4F0F731127E02E8C8D8E110CC00FB6AD
:1004D00007FCFACFE889F989808185FFF5CFCE0145
:1004E0000E941302F1CFEB8DEC0FFD2FF11DE35AAB
:1004F000FF4FF0829FB7F8940B8FEA89FB898081C8
:100500008062CFCFCF93DF93EC01888D8823B9F041
:10051000AA89BB89E889F9898C9185FD03C080810E
:1005200086FD0DC00FB607FCF7CF8C9185FFF2CF8B
:10053000808185FFEDCFCE010E941302E9CFDF91CC
:10054000CF910895089590E080E00895CF93DF93D0
:10055000DC0126E0629FA00DB11D112490965C93F2
:100560004E935F9721E091962C939197FC01E3596C
:10057000FF4F0190F081E02DEC01C459DF4F28813D
:10058000222341F0309719F0DC01662329F0DF9136
:10059000CF9108953097D9F35C968C91DF91CF91EC
:1005A0000994CF92DF92EF92FF920F931F93CF9314
:1005B000DF93FC0126E0629FE00DF11D112411A2E2
:1005C000278D30A12130310559F188F022303105D5
:1005D00009F452C02330310509F453C0DF91CF91A3
:1005E0001F910F91FF90EF90DF90CF9008954423DB
:1005F000A9F3EC0141E050E00E94A6022FB7F89465
:1006000080914A0390914B03A0914C03B0914D030C
:100610002FBFC85ADF4F88839983AA83BB83DECF5D
:100620002FB7F894C0904A03D0904B03E0904C034E
:10063000F0904D032FBFFC01E85AFF4F008111815C
:1006400022813381C01AD10AE20AF30A729600812C
:10065000118130E020E00C151D052E053F0560F4EA
:1006600042E050E0DF91CF911F910F91FF90EF900A
:10067000DF90CF900C94A6024111B0CF43E050E040
:10068000F1CF50E040E0EECFCF93DF9370E0FB017D
:10069000E654FF4F8491FB01EA55FF4FD4916E560B
:1006A0007F4FFB01C491CC23A1F081110E949300E4
:1006B000EC2FF0E0EE0FFF1FEC58FF4FA591B49127
:1006C000EC91ED2381E090E009F480E0DF91CF919F
:1006D000089580E090E0FACF862F642F0C94BC0040
:1006E000862F642F0C94F800CF93C82F8A3029F4FA
:1006F0006DE082E593E00E9435026C2F82E593E085
:100700000E94350290E080E0CF910895CF93DF936F
:10071000EC0160E08E810E94BC0061E08E810E944D
:10072000BC0060E08E810E94BC008BE891E00197E4
:10073000F1F7DF91CF910895CF92DF92EF92FF9280
:100740000F931F93CF93DF936C017C0187E0E80E3A
:10075000F11CD0E0C0E0062F10E0B8010C2E02C062
:10076000759567950A94E2F76170F70181917F01B1
:100770000E94BC002196C430D10579F7C601DF91F3
:10078000CF911F910F91FF90EF90DF90CF900C943D
:100790008603CF92DF92EF92FF920F931F93CF9336
:1007A000DF93EC01F62E642F8C810E94BC008D81BA
:1007B0008F3F19F060E00E94BC000F2D10E08F8584
:1007C00084FF25C06E0187E0C80ED11CF12CE12CFE
:1007D000B8010E2C02C0759567950A94E2F7617016
:1007E000F60181916F010E94BC00FFEFEF1AFF0A32
:1007F00088E0E816F10461F7CE01DF91CF911F91F7
:100800000F91FF90EF90DF90CF900C948603B8018A
:1008100084E0759567958A95E1F7CE010E949C0367
:100820006F2DCE01DF91CF911F910F91FF90EF902F
:10083000DF90CF900C949C0340E0682F81EF93E011
:100840000C94C903CF93DF93823029F49091000474
:10085000986090930004809304041092050480E44F
:100860008093060480E18093070480E58093080468
:1008700061E08091F5030E94F8008091F6038F3FBC
:1008800019F061E00E94F80061E08091F7030E9496
:10089000F800C1EFD3E09E01215F33408091000456
:1008A00084FD0BC084E090E021962817390744F4BA
:1008B00061E08E810E94F800EECF88E090E0F4CFF6
:1008C0008BE39DE00197F1F760E08091F5030E94D2
:1008D000BC0060E08091F7030E94BC008091F603A9
:1008E0008F3F19F060E00E94BC008091000484FDFD
:1008F00039C063E081EF93E00E949C03CBE4D6E42F
:10090000CE010197F1F763E081EF93E00E949C0331
:100910002197F1F763E081EF93E00E949C0383E568
:1009200092E00197F1F762E081EF93E00E949C036F
:100930008091000480620E941C0484E08093010482
:100940008CE00E941C0481E00E941C048BE39FE168
:100950000197F1F782E08093020486E0DF91CF9166
:100960000C941C0480620E941C048BE496E40197A2
:10097000F1F78091000480620E941C0483E592E0FC
:100980000197F1F78091000480620E941C04D0CF8F
:1009900041E00E94C90381E090E00895FC010190CC
:1009A0000020E9F73197AF01481B590BBC0181EFDB
:1009B00093E00C948B010F931F93CF93DF938C01E3
:1009C000EB0181E00E941C048BE39FE10197F1F7AA
:1009D000E1E0809104048111E0E0E195F0E0EF5066
:1009E000FC4F848980680E941C04C8010E94CE04C8
:1009F000E0910404E23078F4E150F0E0EF50FC4F75
:100A0000848980680E941C04CE01DF91CF911F91E0
:100A10000F910C94CE04E1E0F0CFE1E4F3E085E047
:100A2000DF011D928A95E9F71092460380914703F2
:100A300090914803009731F468E571E086E491E015
:100A40000C94DB0460ED71E0019719F484E591E00A
:100A5000F7CF8EE591E0F4CF1F920F920FB60F9271
:100A600011242F933F938F939F93AF93BF938091C4
:100A70004A0390914B03A0914C03B0914D033091E8
:100A8000490323E0230F2D3758F50196A11DB11D11
:100A90002093490380934A0390934B03A0934C0304
:100AA000B0934D0380914E0390914F03A09150035A
:100AB000B09151030196A11DB11D80934E039093F7
:100AC0004F03A0935003B0935103BF91AF919F91F7
:100AD0008F913F912F910F900FBE0F901F901895FF
:100AE00026E8230F0296A11DB11DD2CF1F920F92AF
:100AF0000FB60F9211242F933F934F935F936F93F1
:100B00007F938F939F93AF93BF93EF93FF9382E570
:100B100093E00E941302FF91EF91BF91AF919F91DB
:100B20008F917F916F915F914F913F912F910F9096
:100B30000FBE0F901F9018951F920F920FB60F9235
:100B400011242F938F939F93EF93FF93E091620370
:100B5000F09163038081E0916803F091690382FD65
:100B60001BC0908180916B038F5F8F7320916C030A
:100B7000821741F0E0916B03F0E0EE5AFC4F958F45
:100B800080936B03FF91EF919F918F912F910F9025
:100B90000FBE0F901F9018958081F4CF10925503CF
:100BA0001092540388EE93E0A0E0B0E080935603E7
:100BB00090935703A0935803B09359038AE191E0AF
:100BC000909353038093520385EC90E090935F03DE
:100BD00080935E0384EC90E09093610380936003C4
:100BE00080EC90E0909363038093620381EC90E04B
:100BF000909365038093640382EC90E09093670385
:100C00008093660386EC90E0909369038093680379
:100C100010926B0310926C0310926D0310926E038E
:100C20008EE0809309048FE080930A041092F4030D
:100C30001092F3038EE391E09093F2038093F1031B
:100C40008DE08093F5038FEF8093F6038CE0809323
:100C5000F7038BE08093F8038AE08093F90389E03F
:100C60008093FA0388E08093FB031092FC031092B8
:100C7000FD031092FE031092FF031092000481E026
:100C80000E9422048FE690E00E94540AFC01128226
:100C90001682158217828CE291E091838083DF01B6
:100CA0005C96CD01CC961C9214961C921E921397C2
:100CB00015961C92159716968A179B07A1F7DF01C8
:100CC000AE59BF4F86E391E011969C938E93129696
:100CD00082E391E011969C938E93129684E08C931C
:100CE00011968C93179780E091E011969C938E93C8
:100CF00018968AE090E011969C938E93129684EF5A
:100D000091E011969C938E93139611961C921E92CD
:100D100051971D921D921D921C92139750961C92F2
:100D2000F093F003E093EF030895CF93DF93CDB7F3
:100D3000DEB72F970FB6F894DEBF0FBECDBF789405
:100D400084B5826084BD84B5816084BD85B58260D0
:100D500085BD85B5816085BD80916E008160809381
:100D60006E001092810080918100826080938100EA
:100D700080918100816080938100809180008160FA
:100D8000809380008091B10084608093B100809155
:100D9000B00081608093B00080917A00846080937D
:100DA0007A0080917A00826080937A0080917A0044
:100DB000816080937A0080917A00806880937A00C5
:100DC0001092C100E0916203F091630392E090837E
:100DD000E0915E03F0915F031082E0916003F09177
:100DE00061038FEC808310926A03E0916603F091B7
:100DF000670386E08083E0916403F091650380815E
:100E000080618083E0916403F09165038081886054
:100E10008083E0916403F091650380818068808322
:100E2000E0916403F091650380818F7D808324E7E6
:100E300033E0309337032093360310923903109236
:100E400038039093310310923B0310923A038EE2E1
:100E500093E090930E0480930D0410922903109256
:100E6000280389E092E090932B0380932A0381E08A
:100E70008093230310922D0310922C0380E293E0C1
:100E800090930C0480930B0468E671E08CE393E08C
:100E90000E94820B61E0809109040E94F80061E0E9
:100EA00080910A040E94F8000E94EA0082E00E94F9
:100EB00022040E940D058DE691E00E949F0B82E9BD
:100EC00091E00E949F0B9E012F5F3F4F39010091DF
:100ED000EF031091F003C80184599F4F99878887C9
:100EE00081E0A885B9858C938FB7F89440914A0327
:100EF00050914B0360914C0370914D038FBFF801EB
:100F0000E45AFF4FFB87EA8780819181A281B381F8
:100F1000481B590B6A0B7B0B3C9680819181B0E09A
:100F2000A0E084179507A607B70708F065C1D12C84
:100F300098012A593F4F3F832E83780132E6E30E12
:100F4000F11CAE81BF818C91D81698F4F701A08175
:100F5000B181CD018D0D911DD801ED91FC910190D4
:100F6000F081E02D42E0DC016C91C8010995D39439
:100F7000E8CF312CF801E959FF4FFD87EC872801B4
:100F8000F4E64F0E511C98012E593F4F3F872E8794
:100F9000AC85BD858C91381608F07FC0C32CD12C50
:100FA000F201A081B181CD018C0D9D1DD801ED9183
:100FB000FC910190F081E02D41E0DC016C91C801D1
:100FC0000995F201A081B181CD018C0D9D1DD80143
:100FD000ED91FC910280F381E02D40E0DC016C9109
:100FE000C801099581E090E0A0E0B0E0032C04C0C6
:100FF000880F991FAA1FBB1F0A94D2F74C015C01EE
:10100000A094B094212CD801ED91FC91AE81BF81C8
:101010008C91281618F5E22CF12CAE85BF858D91A8
:101020009C91DC01AE0DBF1D0480F581E02D6C911B
:10103000C8010995EE0CFF1CF801EE0DFF1D892B70
:1010400041F4808591858829992991878087239407
:10105000DACF808591858A219B21F7CFD2018D91AE
:101060009C91DC01AC0DBD1D0280F381E02D41E0BF
:101070006C91C8010995F20180819181C80ED91E39
:10108000D801ED91FC910190F081E02D40E0D60176
:101090006C91C801099533947BCF5801C801CC9657
:1010A0007801F701278D30A1232B31F4148E2FEF17
:1010B0003FEF368F258F11A236E0E30EF11C8E151F
:1010C0009F0579F7912C280180E6480E511CAE81CE
:1010D000BF818C91981608F054C0812CC92CD12C5A
:1010E000B4E0CB0ED11CCC0CDD1CC00ED11EEC85A7
:1010F000FD858081881608F042C0D6014D915C9133
:10110000082C02C0569547950A94E2F7989EC001B4
:101110001124880D911DF80160E0258D368D821710
:10112000930709F4B3C16F5F36966A30B1F740FF99
:1011300024C0F80170E060E0248D211118C0D201B4
:10114000ED91FC91E80FF91F2081B6E0B69FF00108
:10115000B79FF00D1124E00FF11F248F968F858F1C
:1011600010A2178E41E0C8010E94D10206C06F5F35
:101170007F4F36966A307105F9F68394B8CF939411
:10118000A6CF80E0F50191A19111892FF6E0AF0E75
:10119000B11CAE14BF04B1F79FB7F89440914A0355
:1011A00050914B0360914C0370914D039FBFAA85F2
:1011B000BB854D935D936D937C9313978823E1F0EA
:1011C000F80181A18823C1F0E78CF0A0F1E0EF16CF
:1011D000F10491F4D8015C961C91111111C080E0CA
:1011E00090E0892B09F473CE0E94F501882309F45D
:1011F0006ECE0E9400006BCEE885F9851082EFCF9D
:10120000812F012E000C990B9F931F9320EC31E04E
:101210003F932F930E94890B0F900F900F900F9088
:10122000133211F58091470390914803892BA9F45B
:101230008091460381111DC0F0924803E09247035C
:1012400081ED91E00E949F0B0E940D0564EB70E020
:1012500080E090E00E945901C2CF109248031092A2
:1012600047038FEE91E0EECF1A3219F48AE092E054
:10127000E9CF80ED810F8A3048F7E0914603E430F2
:1012800028F781E08E0F80934603F0E0EF5BFC4F80
:101290001083F3012AE221939E2F96199817D8F311
:1012A000F301E80FF11D10828091470390914803EC
:1012B000B301009709F071C086E491E00E94DB045D
:1012C00080914603843011F6809147039091480342
:1012D000009709F07BC0109245031A82198282E5BB
:1012E00093E00E94E901F12CE12C1816190674F420
:1012F0007F926F9288E192E09F938F930E94CA0B36
:10130000F82EE92E0F900F900F900F906CE373E082
:1013100081E493E00E94790B8C0181E493E09F9338
:101320008F93ABE1B2E0BF93AF930E94890BEF9232
:10133000FF928DE292E09F938F930E94890B8A81A6
:101340008F9389818F9385E492E09F938F930E947E
:10135000890B0FB6F894DEBF0FBECDBF012B29F568
:101360008DE592E00E949F0B64E672E08CE692E0CD
:101370000E94DB0461E0809109040E94BC0060E0EF
:1013800080910A040E94BC0060ED77E080E090E06C
:101390000E9459010E94EA0057CF019719F484E591
:1013A00091E08CCF8EE591E089CF83E792E00E94B7
:1013B0009F0B6AE772E08CE692E00E94DB0460E03B
:1013C000809109040E94BC0061E0DACF019709F026
:1013D00044C081E493E0109245039F938F9381E88A
:1013E00092E09F938F930E94890B6CE373E081E4FA
:1013F00093E00E94790B0F900F900F900F90892B24
:1014000059F486E992E00E949F0BE2E0F0E0F0934D
:101410004803E093470318CF88EB92E00E949F0BAC
:101420006EED72E086EE92E00E94DB0460E0809157
:1014300009040E94BC0061E080910A040E94BC0083
:1014400060ED77E080E090E00E9459010E94EA00A0
:101450001092480310924703F7CE1092450361E4BF
:1014600073E08CE393E00E94820B8FEE92E00E9487
:101470009F0B6EE073E086E193E00E94DB0461E085
:10148000809109040E94BC0060E0D6CF41706BCE11
:101490008091EF039091F0030C94F00AEE0FFF1F80
:1014A0000590F491E02D09940F931F93CF93DF9350
:1014B0008230910510F482E090E0E0911304F09105
:1014C000140430E020E0B0E0A0E0309799F421155A
:1014D000310509F44AC0281B390B24303105D8F5F1
:1014E0008A819B816115710589F1FB019383828358
:1014F000FE0111C0408151810281138148175907B3
:10150000E0F04817590799F4109761F012960C9380
:10151000129713961C933296CF01DF91CF911F91B2
:101520000F9108950093130410931404F4CF211520
:10153000310551F04217530738F0A901DB019A0138
:10154000BD01DF01F801C1CFEF01F9CF9093140481
:1015500080931304CDCFFE01E20FF31F819391938B
:101560002250310939832883D7CF2091110430913B
:101570001204232B41F42091120130911301309376
:1015800012042093110420911001309111012115B2
:10159000310541F42DB73EB740911401509115012A
:1015A000241B350BE0911104F0911204E217F307AC
:1015B000A0F42E1B3F0B2817390778F0AC014E5FC3
:1015C0005F4F2417350748F04E0F5F1F50931204EA
:1015D00040931104819391939FCFF0E0E0E09CCF82
:1015E000CF93DF930097E9F0FC01329713821282C8
:1015F000A0911304B0911404ED0130E020E01097A5
:10160000A1F420813181820F931F20911104309128
:1016100012042817390709F061C0F0931204E0930F
:101620001104DF91CF910895EA01CE17DF07E8F5A5
:101630004A815B819E0141155105B1F7E901FB83A8
:10164000EA8349915991C40FD51FEC17FD0761F446
:10165000808191810296840F951FE9019983888387
:10166000828193819B838A83F0E0E0E012968D91E2
:101670009C9113970097B9F52D913C911197CD014D
:101680000296820F931F20911104309112042817A3
:10169000390739F6309751F510921404109213045B
:1016A000B0931204A0931104BCCFD383C2834081B2
:1016B0005181840F951FC817D90761F44E5F5F4FA2
:1016C00088819981480F591F518340838A819B816A
:1016D000938382832115310509F0B0CFF093140470
:1016E000E09313049ECFFD01DC01C0CF1382128270
:1016F000D7CFFB01DC018D91019080190110D9F346
:10170000990B0895FB01DC0101900D920020E1F797
:101710000895B0E0A0E0EFE8FBE00C946911AE01A1
:101720004B5F5F4FFA0161917191AF0180910D04A0
:1017300090910E040E94E00BE2E00C9485110F934F
:101740001F93CF93DF93E0910D04F0910E0423815A
:10175000EC0110E000E021FD08C00FEF1FEF14C006
:101760000995892B11F00FEF1FEF899160910D04FE
:1017700070910E04DB011896ED91FC918111F0CF70
:101780008AE00995892B49F7C801DF91CF911F9114
:101790000F910895B0E0A0E0E0EDFBE00C9469113A
:1017A000AE014B5F5F4FFA0161917191AF01809182
:1017B0000B0490910C040E94450FE2E00C948511FB
:1017C000ABE0B0E0E6EEFBE00C9459117C013B018C
:1017D0008A01FC0117821682838181FFC8C1CE0174
:1017E00001965C01F7019381F30193FD859193FFCD
:1017F00081913F01882309F453C1853239F493FD67
:10180000859193FF81913F01853229F4B70190E0E2
:101810000E94B010E7CF912C212C312CFFE1F31561
:1018200038F08B3211F190F4803209F1833229F1D2
:1018300037FC3CC020ED280F2A3050F536FE20C082
:101840008AE0989E200D1124922E06C08D3291F0D0
:10185000803371F7689430F8F30193FD859193FF1D
:1018600081913F018111DACF21C0689431F86894E9
:1018700032F8F2CF689433F8EFCF689434F8ECCFB5
:10188000EAE02E9E200D1124222E689435F8E4CF34
:101890008E3229F436FC04C1689436F8DDCF8C36DC
:1018A00019F4689437F8D8CF8836B1F2982F9F7D15
:1018B00095549330E0F08336A1F18337C1F183353D
:1018C00009F063C02801F2E04F0E511CF801C080FE
:1018D000D180692D70E036FC02C06FEF7FEFC6014A
:1018E0000E945E104C01689437F882010AC00C5FB8
:1018F0001F4FFFE3F98388248394912C6501E894BA
:1019000037F833FE2DC0522C8114910471F5552007
:1019100009F468CFB70180E290E00E94B0105A94B9
:10192000F6CFF801808189830E5F1F4FE4CF280135
:10193000F2E04F0E511CF801C080D180692D70E09B
:1019400036FC02C06FEF7FEFC6010E9469104C01A8
:101950008201D5CFB70180E290E00E94B0102A94B6
:101960002814190409F0B0F7CECFF60137FC8591A1
:1019700037FE81916F01B70190E00E94B0105110C5
:101980005A94F1E08F1A9108BFCF843619F0893646
:1019900009F077C0F80137FE6BC0608171818281E8
:1019A00093810C5F1F4FF32DFF763F2E97FF09C0E9
:1019B00090958095709561957F4F8F4F9F4F68945C
:1019C00037F82AE030E0A5010E94F810C82ECA18A6
:1019D0008C2C432C36FE0CC0E89440F8C91440F41B
:1019E00034FE05C032FC03C0F32DFE7E4F2E892C41
:1019F00044FE95C0FE01EC0DF11D8081803309F09D
:101A000087C0242D297E422E842D8870582E43FCB9
:101A100095C040FE8FC09C2C821418F42C0C922C84
:101A2000981844FE91C0B70180E390E00E94B01086
:101A300042FE09C088E790E041FE02C088E590E0E0
:101A4000B7010E94B010C91408F48AC0CA94D12CFE
:101A50009FEFC91AD90ACA0CDB1CF60182916F01EB
:101A6000B70190E00E94B010AC14BD04B1F74FCFA5
:101A700060817181072E000C880B990B0E5F1F4F40
:101A800092CFD32CE894D4F82AE030E0853739F1AE
:101A9000232D297FD22E8F3601F148F48835A9F005
:101AA000F701868197812B96E2E10C9475118037BE
:101AB00049F08837A9F7D4FE02C06894D2F820E133
:101AC00030E00DC06894D4F8F6CF34FE03C0822F06
:101AD0008660D82E20E132E002C028E030E0F80134
:101AE000D7FE0FC060817181828193810C5F1F4F8F
:101AF000A5010E94F810C82ECA183D2CE89437F8AA
:101B000067CF6081718190E080E00E5F1F4FF0CF62
:101B100042FC02C0839478CF8394839475CF842D44
:101B2000867809F471CFF6CFB70180E290E00E9489
:101B3000B01083948214C0F3512C73CF522C5818D8
:101B4000821408F46ECFF8CF842D867809F47BCF09
:101B50008BE241FE80E247FC8DE2B70190E071CF5D
:101B6000B70180E390E00E94B0109A946CCF8FEFA1
:101B70009FEF99CF20FD09C0FC0123FD05C022FF86
:101B800002C07383628351834083089544FD17C06C
:101B900046FD1DC0DB01FC01AA0FBB1FEE1FFF1F8E
:101BA0001094D1F76A0F7B1F8E1F9F1F660F771F40
:101BB000881F991F620F711D811D911D089533E0CB
:101BC000660F771F881F991F3150D1F7F3CF34E08C
:101BD000F7CF0F931F93CF93DF938C01C8010E941F
:101BE0007410EC0197FD08C00E944A10892BB1F7D0
:101BF000B801CE010E94E010CE01DF91CF911F917C
:101C00000F9108958F929F92AF92BF92EF92FF92A1
:101C10000F931F93CF93DF938C01D62F7A01B22EAF
:101C20000E9474109C0133272B32310529F02D328C
:101C30003105A9F46894B7F8D15061F480E0DF91E0
:101C4000CF911F910F91FF90EF90BF90AF909F9019
:101C50008F900895C8010E94741097FDEFCFCB2D8F
:101C6000CD7F2B2D2073F9F48033E9F4AA24AA94B4
:101C7000AD0E89F0C8010E94741097FD0CC0282F8A
:101C80002F7D283561F4C264D25029F0C8010E942A
:101C9000741097FF08C0812C912C54011BC0B6FE14
:101CA0002BC0C260DA2D812C912C540120ED280F1D
:101CB000283028F1C4FD09C02A3008F1C6FF05C04C
:101CC0002F7D3FEE320F3630C8F0B8010E94E01091
:101CD000C1FFB4CFC7FF08C0B094A0949094809483
:101CE000811C911CA11CB11C2C2FB501A401C701A2
:101CF0000E94BA0D81E0A3CFC261D4CF27504C2FF0
:101D0000C501B4010E94C60D4B015C01C260D150F7
:101D100009F3C8010E94741097FFC8CFD9CFA0E281
:101D2000B0E0E5E9FEE00C945E115C01962E7A01CC
:101D3000CE0101966C0180E2F60111928A95E9F7D5
:101D4000F501B381890130E020E0712C812CA0E005
:101D500041E050E0F801B3FD8591B3FF8191982FE8
:101D60008F01811107C010E000E0C801A096EDE0EE
:101D70000C947A118E3519F42115310541F1A21711
:101D800013064CF48D3549F18D3229F4811006C0CB
:101D9000882483941DC0882009F464C0E92FE69547
:101DA000E695E695EC0DFD2DF11D892F8770BA01A2
:101DB00001C0660F8A95EAF78081682B60837916E7
:101DC00051F0971510F49F5FE9CF9150E7CFA1E054
:101DD0002F5F3F4FBFCF812CFBCF882019F08E8122
:101DE00080628E83AA2359F0F6019E012F5D3F4F3A
:101DF0008081809580833196E217F307C9F78824A4
:101E00008394C5010E94741097FD16C0E82FE695D3
:101E1000E695E695EC0DFD2DF11D208130E0AC013D
:101E20004770552702C0359527954A95E2F720FD62
:101E300006C0B5010E94E010882069F094CFE1143B
:101E4000F10429F0F7018083C70101967C019A947F
:101E5000812C9110D6CFE114F10409F486CFF7015B
:101E6000108283CFE82FE695E695E695EC0DFD2DE3
:101E7000F11D982F9770BA0101C0660F9A95EAF785
:101E80009081692B6083782EA3CFB0E0A0E0EBE4D3
:101E9000FFE00C945C116C01EB015A01FC0117820C
:101EA0001682512CF601E380FE01E3FC8591E3FEEE
:101EB0008191182FEF018823E9F090E00E944A10E9
:101EC000892B21F0C6010E94E90DECCF153241F4B7
:101ED000FE01E3FC1591E3FE1191EF01153269F467
:101EE000C6010E94741097FD8EC01817D9F2B60172
:101EF0000E94E010852D90E08AC000E01A3231F493
:101F0000E3FC1591E3FE1191EF0101E0F12C20EDCE
:101F1000210F2A3048F101FF37C0FF2059F318364E
:101F2000B1F11C3609F43DC0112321F3612F70E09B
:101F300088E690E00E945310892BE1F2912C812CCD
:101F400000FD06C0F50180809180C50102965C010C
:101F50001E3679F5F6014681578170E060E0202F4A
:101F6000C4010E94BA0D9ECF02606F2D70E090E018
:101F700080E040E20E94C60DF62EFE01E3FC1591C2
:101F8000E3FE1191EF01C3CFFF24FA94C8CFFE0105
:101F9000E3FC1591E3FE1191EF01183609F0C4CF6F
:101FA00008600460FE01E3FC1591E3FE1191EF016E
:101FB000BBCF1336C1F401FD02C0FF24F394C60168
:101FC0000E94741097FD1FC08114910429F0F40140
:101FD0008083C40101964C01FA94F110F0CF00FD0A
:101FE00061CF53945FCF1B35B9F49E01A4016F2DCF
:101FF000C6010E948F0EEC01892B89F7F6018381BF
:10200000807309F477CF8FEF9FEF511073CFCDB767
:10201000DEB7EFE00C947811C6010E94E90D97FD40
:10202000F2CF1F36A9F130F4143641F0193639F0E9
:10203000006405C01337B9F01537D1F70062202FBF
:10204000A4016F2DC6010E94020E8111C8CFD6CF08
:102050008114910429F0F4016082C40101964C01BD
:10206000FA94FF2071F0C6010E9474103C0197FDA4
:1020700008C00E944A10892B59F3B601C3010E947F
:10208000E0108114910409F4AACFF4011082A7CFC3
:102090000061D5CF91110C945611803219F08950FE
:1020A0008550C8F70895FC010590061621F0002020
:1020B000D9F7C00108953197CF010895FC0105902B
:1020C000615070400110D8F7809590958E0F9F1F3A
:1020D0000895FC016150704001900110D8F780957F
:1020E00090958E0F9F1F0895CF93DF93EC012B8166
:1020F00020FF1AC026FF0CC02F7B2B838E819F816F
:1021000001969F838E838A8190E0DF91CF9108951D
:1021100022FF18C0E881F9818081082E000C990BFC
:10212000009729F420622B838FEF9FEFEECF31963B
:10213000F983E8832E813F812F5F3F4F3F832E83BA
:102140009927E3CFEA85FB85099597FFF3CF2B818C
:10215000019621F080E2822B8B83E6CF80E1FBCFDA
:102160000F931F93CF93DF93182F092FEB018B81D0
:1021700081FD09C01FEF0FEF812F902FDF91CF91CD
:102180001F910F91089582FF14C02E813F818C8191
:102190009D81281739073CF4E881F981CF01019628
:1021A0009983888310838E819F8101969F838E837C
:1021B000E3CFE885F985812F0995892BA1F3DACF43
:1021C000FB01238120FF11C026FD0FC08F3F980720
:1021D00071F082832F7D20642383268137812150F3
:1021E000310937832683992708958FEF9FEF08954C
:1021F000FA01AA27283051F1203181F1E8946F9338
:102200006E7F6E5F7F4F8F4F9F4FAF4FB1E03ED0DD
:10221000B4E03CD0670F781F891F9A1FA11D680F7B
:10222000791F8A1F911DA11D6A0F711D811D911DAE
:10223000A11D20D009F468943F912AE0269F112423
:102240003019305D3193DEF6CF010895462F477087
:10225000405D4193B3E00FD0C9F7F6CF462F4F70E2
:10226000405D4A3318F0495D31FD4052419302D040
:10227000A9F7EACFB4E0A6959795879577956795E6
:10228000BA95C9F700976105710508959B01AC01E6
:102290000A2E06945795479537952795BA95C9F70D
:1022A000620F731F841F951FA01D0895992788270B
:1022B00008952F923F924F925F926F927F928F92EA
:1022C0009F92AF92BF92CF92DF92EF92FF920F93C5
:1022D0001F93CF93DF93CDB7DEB7CA1BDB0B0FB6CF
:1022E000F894DEBF0FBECDBF09942A88398848888C
:1022F0005F846E847D848C849B84AA84B984C88422
:10230000DF80EE80FD800C811B81AA81B981CE0F18
:10231000D11D0FB6F894DEBF0FBECDBFED010895FD
:1023200010E0C8E6D0E004C0FE010E944E0A2196EB
:0A233000C936D107C9F7F894FFCFB2
:10233A003132334134353642373839432A3023442F
:10234A000000150480000000000035028B01B8016E
:10235A008202E901C701DB010000000070036C037F
:10236A004403030211100706050400000000C80414
:10237A008B01A302A202456E74657220342D646932
:10238A00676974004F6C6420636F64653A004E6538
:10239A007720636F64653A003132333400537973BE
:1023AA0074656D2052656164792E20456E7465727C
:1023BA0020436F646520766961204B65797061649A
:1023CA002E005072657373202320746F2063686136
:1023DA006E67652070617373776F72642C202A2090
:1023EA00746F20636C65617220696E7075742E005B
:1023FA004B657920507265737365643A2025630AC8
:10240A000050617373776F7264206368616E6765E9
:10241A00206D6F646520656E61626C65642E005084
:10242A00617373776F7264206368616E6765206396
:10243A00616E63656C6C65642E00496E70757420FC
:10244A00636C656172656400256400456E7465722B
:10245A00656420436F64653A2025730A00536361FB
:10246A006E66207061727365207374617475733A55
:10247A002025640A005363616E6620706172736579
:10248A00642076616C75653A2025640A00416363AD
:10249A00657373204772616E746564004163636596
:1024AA007373004163636573732044656E69656481
:1024BA0000566572696679206F6C6420636F646583
:1024CA003A2025730A004F6C6420636F64652063A9
:1024DA006F72726563742E20456E746572206E6524
:1024EA007720636F64652E004F6C6420636F6465A8
:1024FA0020696E76616C69642E2050617373776F00
:10250A00726420756E6368616E6765642E00696E19
:10251A0076616C6964004F6C6420636F6465005077
:10252A00617373776F7264206368616E6765642094
:10253A007375636365737366756C6C792E00557079
:10254A0064617465640050617373776F726400002C
:00000001FF
